:1000000071C000008EC000008CC000008AC00000DB
:1000100088C0000086C0000084C0000082C00000CC
:1000200080C00000F5C300007CC000007AC0000062
:1000300078C0000076C0000074C0000072C00000EC
:1000400070C00000B4C300006CC000006AC00000B3
:1000500068C0000066C0000064C0000062C000000C
:1000600060C0000041C300005CC0000031C300005C
:1000700058C0000056C0000054C0000052C000002C
:1000800050C000004EC000004CC000004AC000003C
:1000900048C0000046C0000044C0000042C000004C
:1000A00040C000003EC000003CC000003AC000005C
:1000B00038C0000036C0000034C0000032C000006C
:1000C00030C000002EC000002CC000002AC000007C
:1000D00028C0000026C0000024C0000022C000008C
:1000E00020C0000011241FBECFEFD1E2DEBFCDBF84
:1000F00000E00CBF13E0A0E0B2E0E0E4FFE000E0CD
:100100000BBF02C007900D92A232B107D9F723E0CE
:10011000A2E2B3E001C01D92A833B207E1F78CD38D
:100120000DC76ECF8770806480937C00EAE7F0E0B3
:10013000808180648083808186FDFDCF80917800FE
:100140009091790008950F931F93CF93DF9397E8D1
:1001500090937A0010927B0090E490937C0020B3FF
:10016000382F3095232320BB91B3932391BBC0E05C
:10017000D0E0082F10E098018C2F0C2E02C035958E
:1001800027950A94E2F720FDCDDF2196C830D105EE
:1001900091F7DF91CF911F910F910895382F282F5C
:1001A000892F3323E9F01CF0911121C01BC03323A8
:1001B0000CF591111FC0432F41951FC0492F431BC0
:1001C0001CC0492F832F890F18C0882374F412167E
:1001D0001CF4432F490F11C0492F892F831B0DC0D9
:1001E000492F0BC0832F40E008C080E006C01916DD
:1001F0002CF3EBCF18162CF3E8CF942F08954091F1
:10020000260350912703841B950B64E6689F900199
:10021000699F300D1124C901845F914060912A03C8
:1002200070912B0365507109641B750B61D3862F88
:1002300008952091220330912303AC01421B530BFC
:1002400064E6649FC001659F900D112460912603B0
:100250007091270365507109621B730B49D38CE9B8
:10026000860F08954091280350912903841B950B14
:1002700064E6689F9001699F300D1124C901845F75
:10028000914060912C0370912D0365507109641B9E
:10029000750B2ED3862F08952091240330912503CA
:1002A000AC01421B530B64E6649FC001659F900D37
:1002B0001124609128037091290365507109621B14
:1002C000730B16D38CE9860F089520912603309185
:1002D0002703A901455051098417950710F4A9CFA8
:1002E00008952B5F3F4F2817390710F488CF0895E2
:1002F00080E008952091280330912903A9014550F9
:1003000051098417950710F4C7CF08952B5F3F4F0D
:100310002817390710F4A6CF089580E008950F93A9
:100320001F93CF93DF9380E0FDDEEC0181E0FADEE6
:100330008C01CE01CADFC82FC801DCDF982F8C2FBB
:10034000DF91CF911F910F910895EF92FF920F933C
:100350001F93CF93DF93EAE2F3E0118210821382BE
:100360001282E2E2F3E080E094E091838083938361
:10037000828383E392E018D386E492E015D30AE205
:1003800013E00F2EF2E2EF2EF3E0FF2EF02D25C04A
:1003900080E0C8DEEC0181E0C5DEF801208131811A
:1003A0002C173D0710F4D183C083F70120813181E0
:1003B000C217D30710F4D183C083F801228133819F
:1003C0002817390710F493838283F7012281338140
:1003D0008217930710F4938382831D9BD9CFFFEF7D
:1003E00029EF80E0F15020408040E1F700C000009C
:1003F00080E098DEC6E2D3E09983888381E092DED4
:100400009B838A8380E792E0CFD2EAE2F3E08381A4
:100410008F9382818F9381818F9380818F9383E8E3
:1004200092E09F938F93ADD2E2E2F3E083818F93CA
:1004300082818F9381818F9380818F9381EB92E072
:100440009F938F939ED28B818F938A818F93898183
:100450008F9388818F938FED92E09F938F9391D2AA
:10046000EDB7FEB772960FB6F894FEBF0FBEEDBFA4
:10047000DF91CF911F910F91FF90EF90089583E04E
:1004800062DE63CF0895F894E0EBF0E08081836A48
:100490008083E1EBF0E0808187608083789487E15E
:1004A0008093B3008093B40008950097C1F124E6CF
:1004B00030E0A901481B590BCA0182959295907FA3
:1004C0009827807F982768EC70E026D2605F809143
:1004D000B400861720F0681790F0089567E1E4EB08
:1004E000F0E08F5F80835FE798E321E05150904018
:1004F0002040E1F700C00000861798F30895E4EB70
:10050000F0E0815080833FE748E351E031504040C4
:100510005040E1F700C00000681798F308958091FB
:10052000B4008731D8F267E1D6CF0097A1F18C599A
:100530009F4F82959295907F9827807F982768ECAF
:1005400070E0EAD1605F8091B300861720F06817F1
:1005500090F0089567E1E3EBF0E08F5F80832FE791
:1005600038E391E0215030409040E1F700C00000B6
:10057000861798F30895E3EBF0E0815080832FE72E
:1005800038E391E0215030409040E1F700C0000096
:10059000681798F308958091B3008731D8F267E126
:1005A000D6CFE0E0F2E091E094830190F081E02D7D
:1005B0008083E0E0F2E084818111FDCF80E090E073
:1005C0000895E0910202F0910302A0E0B2E003C0BE
:1005D000808183FD2CC016968C911697882361F13B
:1005E000A0E0B2E015969C911597E92FF0E0E0505D
:1005F000FE4F87819F5FE1ECF0E020812F77208321
:1006000029E8929F212D112422952F703EE1239FEE
:100610009019112415969C93159716969C911697F0
:10062000915016969C9390819068908303C08FEFB1
:1006300001C08EEF90E00895808184FFC9CFF9CF8B
:100640000F931F938B019C01DC01CB01975FA24CA0
:10065000BF4F880F991FAA1FBB1F880F991FAA1F82
:10066000BB1FBC01CD01660F771F881F991F000FAC
:10067000111F221F331F000F111F221F331FA9013B
:100680009801220F331F441F551F220F331F441F91
:10069000551F55D121503109F8943093C50020934E
:1006A000C40082E08093C00086E08093C20088EDA1
:1006B0008093C100109204027894E2E3F3E085E2B3
:1006C00092E093838283918380831F910F91089599
:1006D0001F920F920FB60F921124109204020F90E6
:1006E0000FBE0F901F9018951F920F920FB60F928A
:1006F00011240BB60F922F938F939F93AF93BF93B9
:10070000EF93FF93E0E0F2E0A081B1819C918681BC
:100710008E31D0F4DF01E68115968C911597E80FA4
:1007200089E8E89F812D112482958F702EE1829FA8
:10073000E0191124F0E0E050FE4F978316968C915B
:1007400016978F5F16968C93FF91EF91BF91AF91A3
:100750009F918F912F910F900BBE0F900FBE0F9016
:100760001F901895F894E0E8F0E08081886080831D
:10077000E1E8F0E0808183608083EFE6F0E0808153
:100780008260808380E593EC909389008093880059
:1007900078940895F894E8E6F0E0808181608083A1
:1007A000EBE6F0E0808180628083789408951F9268
:1007B0000F920FB60F9211248F939F9380912E0367
:1007C000833334F09EB188E089278EB9759819C0BB
:1007D00080912E038E3C34F49EB180E289278EB93D
:1007E00073980FC080912F03181624F080912F0367
:1007F00088232CF49EB188E289278EB902C07398B1
:1008000075989F918F910F900FBE0F901F90189524
:100810001F920F920FB60F9211248F939F9381E036
:1008200090E090933103809330039F918F910F90CC
:100830000FBE0F901F90189560E875E280E090E081
:10084000FFDE83986B9A6D9A249AE1E0F1E0808153
:100850008064808387DF9EDF12DE15DE1092310315
:10086000109230030F2EFAE0EF2EF3E0FF2EF02D62
:1008700056DD90932F0380932E032FEF89EF90E0A6
:10088000215080409040E1F700C0000080912E038D
:1008900090912F0383DCC92F092E000CDD0B082F4C
:1008A000082E000C110BDF939F931F938F93FF92E1
:1008B000EF9267D080913003909131030F900F90A9
:1008C0000F900F900F900F90019769F480E090E0E7
:1008D000ECDD80E090E029DE1D99CACF1092310353
:1008E00010923003C5CFC801E0DDCE011EDEC0CFBF
:1008F000AA1BBB1B51E107C0AA1FBB1FA617B70746
:1009000010F0A61BB70B881F991F5A95A9F7809561
:100910009095BC01CD01089597FB072E16F4009425
:1009200006D077FD08D0E4DF07FC05D03EF49095B3
:1009300081959F4F0895709561957F4F0895A1E22D
:100940001A2EAA1BBB1BFD010DC0AA1FBB1FEE1F49
:10095000FF1FA217B307E407F50720F0A21BB30B94
:10096000E40BF50B661F771F881F991F1A9469F710
:1009700060957095809590959B01AC01BD01CF016C
:100980000895CF93DF93CDB7DEB7AE014A5F5F4FD7
:10099000FA0161917191AF01809134039091350317
:1009A00033D0DF91CF9108950F931F93CF93DF93AF
:1009B000E0913403F0913503238121FF1BC08C01AA
:1009C000D0E0C0E0F80181918F0160913403709113
:1009D0003503DB011896ED91FC911997882331F0CE
:1009E0001995892B79F3DFEFCFEFECCF8AE01995DA
:1009F000892B19F08FEF9FEF02C08D2F9C2FDF9175
:100A0000CF911F910F9108952F923F924F925F9235
:100A10006F927F928F929F92AF92BF92CF92DF920E
:100A2000EF92FF920F931F93CF93DF93CDB7DEB773
:100A30002C970FB6F894DEBF0FBECDBF7C016B01C3
:100A40008A01FC0117821682838181FFB0C1CE0129
:100A500001964C01F7019381F60193FD859193FF77
:100A600081916F01882309F49EC1853239F493FD89
:100A7000859193FF81916F01853221F4B70190E058
:100A8000C7D1E8CF512C312C20E02032A0F48B329A
:100A900069F030F4803259F0833269F420612CC05F
:100AA0008D3239F0803339F4216026C02260246011
:100AB00023C0286021C027FD27C030ED380F3A3011
:100AC00078F426FF06C0FAE05F9E300D1124532E05
:100AD00013C08AE0389E300D1124332E20620CC0E2
:100AE0008E3221F426FD5FC1206406C08C3611F4DD
:100AF000206802C0883641F4F60193FD859193FF8A
:100B000081916F018111C1CF982F9F7D95549330B2
:100B100028F40C5F1F4FFFE3F9830DC0833631F0DB
:100B2000833771F0833509F057C021C0F801808107
:100B300089830E5F1F4F44244394512C540114C0E9
:100B40003801F2E06F0E711CF801A080B18026FF21
:100B500003C0652D70E002C06FEF7FEFC5012C87E9
:100B60004CD12C0183012C852F77222E16C0380101
:100B7000F2E06F0E711CF801A080B18026FF03C067
:100B8000652D70E002C06FEF7FEFC5012C872AD181
:100B90002C012C852068222E830123FC19C0832D73
:100BA00090E048165906A0F4B70180E290E030D1F9
:100BB0003A94F5CFF50127FC859127FE81915F01DD
:100BC000B70190E025D131103A94F1E04F1A510865
:100BD0004114510479F7DEC0843611F0893631F5BD
:100BE000F80127FF07C060817181828193810C5FCA
:100BF0001F4F08C060817181072E000C880B990B74
:100C00000E5F1F4F2F76722E97FF09C0909580952B
:100C1000709561957F4F8F4F9F4F2068722E2AE00D
:100C200030E0A4012DD1A82EA81843C0853729F49F
:100C30002F7EB22E2AE030E025C0F22FF97FBF2EA2
:100C40008F36C1F018F4883579F0ADC0803719F0CF
:100C5000883721F0A8C02F2F2061B22EB4FE0DC01E
:100C60008B2D8460B82E09C024FF0AC09F2F966088
:100C7000B92E06C028E030E005C020E130E002C017
:100C800020E132E0F801B7FE07C060817181828106
:100C900093810C5F1F4F06C06081718180E090E0FE
:100CA0000E5F1F4FA401ECD0A82EA818FB2DFF77D4
:100CB0007F2E76FE0BC0372D3E7FA51450F474FEB8
:100CC0000AC072FC08C0372D3E7E05C0BA2C372DF5
:100CD00003C0BA2C01C0B52C34FF0DC0FE01EA0DD3
:100CE000F11D8081803311F4397E09C032FF06C0C6
:100CF000B394B39404C0832F867809F0B39433FD82
:100D000012C030FF06C05A2CB31418F4530C5B18F1
:100D1000B32CB31460F4B70180E290E03C8778D044
:100D2000B3943C85F6CFB31410F43B1801C0312CBA
:100D300034FF11C0B70180E390E03C8769D03C8567
:100D400032FF16C031FD03C088E790E002C088E59D
:100D500090E0B7010CC0832F867851F031FF02C0BC
:100D60008BE201C080E237FD8DE2B70190E050D008
:100D7000A51430F4B70180E390E04AD05A94F8CF3C
:100D8000AA94F401EA0DF11D8081B70190E040D0F2
:100D9000A110F6CF332009F45DCEB70180E290E0D8
:100DA00037D03A94F7CFF7018681978102C08FEF51
:100DB0009FEF2C960FB6F894DEBF0FBECDBFDF912C
:100DC000CF911F910F91FF90EF90DF90CF90BF9048
:100DD000AF909F908F907F906F905F904F903F90DB
:100DE0002F900895FC010590615070400110D8F7D4
:100DF000809590958E0F9F1F0895FC016150704063
:100E000001900110D8F7809590958E0F9F1F08953F
:100E10000F931F93CF93DF93FB01238121FD03C029
:100E20008FEF9FEF28C022FF16C046815781248193
:100E300035814217530744F4A081B1819D012F5F92
:100E40003F4F318320838C93268137812F5F3F4F23
:100E50003783268310C0EB01092F182F0084F185FA
:100E6000E02D1995892BE1F68E819F8101969F8354
:100E70008E83812F902FDF91CF911F910F91089535
:100E8000FA01AA27283051F1203181F1E8946F93BB
:100E90006E7F6E5F7F4F8F4F9F4FAF4FB1E03ED061
:100EA000B4E03CD0670F781F891F9A1FA11D680FFF
:100EB000791F8A1F911DA11D6A0F711D811D911D32
:100EC000A11D20D009F468943F912AE0269F1124A7
:100ED0003019305D3193DEF6CF010895462F47700B
:100EE000405D4193B3E00FD0C9F7F6CF462F4F7066
:100EF000405D4A3318F0495D31FD4052419302D0C4
:100F0000A9F7EACFB4E0A695979587957795679569
:100F1000BA95C9F700976105710508959B01AC0169
:100F20000A2E06945795479537952795BA95C9F790
:100F3000620F731F841F951FA01D0895F894FFCFA3
:100F4000C600C0000000000000000000000000001B
:100F50000000000000000000000000000000000091
:100F600000000000000000000300000000D102E1CA
:100F700002000043616C6962726174696F6E206285
:100F80006567696E730050757368207468652042E8
:100F90007574746F6E20666F722066696E6973680F
:100FA000696E672063616C6962726174696F6E005B
:100FB00046696E6973682043616C69627261746925
:100FC0006F6E00546865206D6178696D756D20766F
:100FD000616C7565732061726520256420666F728F
:100FE000207820616E6420256420666F7220790A63
:100FF00000546865206D696E696D616C2076616C66
:101000007565732061726520256420666F72207893
:1010100020616E6420256420666F7220790A005476
:1010200068652069646C652076616C756573206104
:10103000726520256420666F72207820616E6420BE
:10104000256420666F7220790A00536572766F20DE
:1010500056616C7565733A202564202F2025640A3B
:0210600000008E
:00000001FF
